{
  "_format": "hh-sol-artifact-1",
  "contractName": "DAO",
  "sourceName": "contracts/Dao.sol",
  "abi": [
    {
      "anonymous": false,
      "inputs": [
        {
          "indexed": true,
          "internalType": "address",
          "name": "initiator",
          "type": "address"
        },
        {
          "indexed": false,
          "internalType": "bytes32",
          "name": "role",
          "type": "bytes32"
        },
        {
          "indexed": false,
          "internalType": "string",
          "name": "message",
          "type": "string"
        },
        {
          "indexed": true,
          "internalType": "address",
          "name": "beneficiary",
          "type": "address"
        },
        {
          "indexed": false,
          "internalType": "uint256",
          "name": "amount",
          "type": "uint256"
        }
      ],
      "name": "Action",
      "type": "event"
    },
    {
      "anonymous": false,
      "inputs": [
        {
          "indexed": true,
          "internalType": "bytes32",
          "name": "role",
          "type": "bytes32"
        },
        {
          "indexed": true,
          "internalType": "bytes32",
          "name": "previousAdminRole",
          "type": "bytes32"
        },
        {
          "indexed": true,
          "internalType": "bytes32",
          "name": "newAdminRole",
          "type": "bytes32"
        }
      ],
      "name": "RoleAdminChanged",
      "type": "event"
    },
    {
      "anonymous": false,
      "inputs": [
        {
          "indexed": true,
          "internalType": "bytes32",
          "name": "role",
          "type": "bytes32"
        },
        {
          "indexed": true,
          "internalType": "address",
          "name": "account",
          "type": "address"
        },
        {
          "indexed": true,
          "internalType": "address",
          "name": "sender",
          "type": "address"
        }
      ],
      "name": "RoleGranted",
      "type": "event"
    },
    {
      "anonymous": false,
      "inputs": [
        {
          "indexed": true,
          "internalType": "bytes32",
          "name": "role",
          "type": "bytes32"
        },
        {
          "indexed": true,
          "internalType": "address",
          "name": "account",
          "type": "address"
        },
        {
          "indexed": true,
          "internalType": "address",
          "name": "sender",
          "type": "address"
        }
      ],
      "name": "RoleRevoked",
      "type": "event"
    },
    {
      "inputs": [],
      "name": "DEFAULT_ADMIN_ROLE",
      "outputs": [
        {
          "internalType": "bytes32",
          "name": "",
          "type": "bytes32"
        }
      ],
      "stateMutability": "view",
      "type": "function"
    },
    {
      "inputs": [
        {
          "internalType": "uint256",
          "name": "proposalId",
          "type": "uint256"
        },
        {
          "internalType": "bool",
          "name": "chosen",
          "type": "bool"
        }
      ],
      "name": "Vote",
      "outputs": [
        {
          "components": [
            {
              "internalType": "address",
              "name": "voter",
              "type": "address"
            },
            {
              "internalType": "uint256",
              "name": "timestamp",
              "type": "uint256"
            },
            {
              "internalType": "bool",
              "name": "chosen",
              "type": "bool"
            }
          ],
          "internalType": "struct DAO.VotedStruct",
          "name": "",
          "type": "tuple"
        }
      ],
      "stateMutability": "nonpayable",
      "type": "function"
    },
    {
      "inputs": [],
      "name": "contribute",
      "outputs": [],
      "stateMutability": "payable",
      "type": "function"
    },
    {
      "inputs": [
        {
          "internalType": "string",
          "name": "title",
          "type": "string"
        },
        {
          "internalType": "string",
          "name": "description",
          "type": "string"
        },
        {
          "internalType": "address",
          "name": "beneficiary",
          "type": "address"
        },
        {
          "internalType": "uint256",
          "name": "amount",
          "type": "uint256"
        }
      ],
      "name": "createProposal",
      "outputs": [],
      "stateMutability": "nonpayable",
      "type": "function"
    },
    {
      "inputs": [],
      "name": "daoBalance",
      "outputs": [
        {
          "internalType": "uint256",
          "name": "",
          "type": "uint256"
        }
      ],
      "stateMutability": "view",
      "type": "function"
    },
    {
      "inputs": [],
      "name": "getBalance",
      "outputs": [
        {
          "internalType": "uint256",
          "name": "",
          "type": "uint256"
        }
      ],
      "stateMutability": "view",
      "type": "function"
    },
    {
      "inputs": [],
      "name": "getContributorBalance",
      "outputs": [
        {
          "internalType": "uint256",
          "name": "",
          "type": "uint256"
        }
      ],
      "stateMutability": "view",
      "type": "function"
    },
    {
      "inputs": [
        {
          "internalType": "uint256",
          "name": "proposalId",
          "type": "uint256"
        }
      ],
      "name": "getProposal",
      "outputs": [
        {
          "components": [
            {
              "internalType": "uint256",
              "name": "id",
              "type": "uint256"
            },
            {
              "internalType": "uint256",
              "name": "amount",
              "type": "uint256"
            },
            {
              "internalType": "uint256",
              "name": "duration",
              "type": "uint256"
            },
            {
              "internalType": "uint256",
              "name": "upvotes",
              "type": "uint256"
            },
            {
              "internalType": "uint256",
              "name": "downvotes",
              "type": "uint256"
            },
            {
              "internalType": "string",
              "name": "title",
              "type": "string"
            },
            {
              "internalType": "string",
              "name": "description",
              "type": "string"
            },
            {
              "internalType": "bool",
              "name": "passed",
              "type": "bool"
            },
            {
              "internalType": "bool",
              "name": "paid",
              "type": "bool"
            },
            {
              "internalType": "address payable",
              "name": "beneficiary",
              "type": "address"
            },
            {
              "internalType": "address",
              "name": "proposer",
              "type": "address"
            },
            {
              "internalType": "address",
              "name": "executor",
              "type": "address"
            }
          ],
          "internalType": "struct DAO.ProposalStruct",
          "name": "",
          "type": "tuple"
        }
      ],
      "stateMutability": "view",
      "type": "function"
    },
    {
      "inputs": [],
      "name": "getProposals",
      "outputs": [
        {
          "components": [
            {
              "internalType": "uint256",
              "name": "id",
              "type": "uint256"
            },
            {
              "internalType": "uint256",
              "name": "amount",
              "type": "uint256"
            },
            {
              "internalType": "uint256",
              "name": "duration",
              "type": "uint256"
            },
            {
              "internalType": "uint256",
              "name": "upvotes",
              "type": "uint256"
            },
            {
              "internalType": "uint256",
              "name": "downvotes",
              "type": "uint256"
            },
            {
              "internalType": "string",
              "name": "title",
              "type": "string"
            },
            {
              "internalType": "string",
              "name": "description",
              "type": "string"
            },
            {
              "internalType": "bool",
              "name": "passed",
              "type": "bool"
            },
            {
              "internalType": "bool",
              "name": "paid",
              "type": "bool"
            },
            {
              "internalType": "address payable",
              "name": "beneficiary",
              "type": "address"
            },
            {
              "internalType": "address",
              "name": "proposer",
              "type": "address"
            },
            {
              "internalType": "address",
              "name": "executor",
              "type": "address"
            }
          ],
          "internalType": "struct DAO.ProposalStruct[]",
          "name": "props",
          "type": "tuple[]"
        }
      ],
      "stateMutability": "view",
      "type": "function"
    },
    {
      "inputs": [
        {
          "internalType": "bytes32",
          "name": "role",
          "type": "bytes32"
        }
      ],
      "name": "getRoleAdmin",
      "outputs": [
        {
          "internalType": "bytes32",
          "name": "",
          "type": "bytes32"
        }
      ],
      "stateMutability": "view",
      "type": "function"
    },
    {
      "inputs": [],
      "name": "getStakeholderBalance",
      "outputs": [
        {
          "internalType": "uint256",
          "name": "",
          "type": "uint256"
        }
      ],
      "stateMutability": "view",
      "type": "function"
    },
    {
      "inputs": [],
      "name": "getStakeholderVotes",
      "outputs": [
        {
          "internalType": "uint256[]",
          "name": "",
          "type": "uint256[]"
        }
      ],
      "stateMutability": "view",
      "type": "function"
    },
    {
      "inputs": [
        {
          "internalType": "uint256",
          "name": "proposalId",
          "type": "uint256"
        }
      ],
      "name": "getVotesOf",
      "outputs": [
        {
          "components": [
            {
              "internalType": "address",
              "name": "voter",
              "type": "address"
            },
            {
              "internalType": "uint256",
              "name": "timestamp",
              "type": "uint256"
            },
            {
              "internalType": "bool",
              "name": "chosen",
              "type": "bool"
            }
          ],
          "internalType": "struct DAO.VotedStruct[]",
          "name": "",
          "type": "tuple[]"
        }
      ],
      "stateMutability": "view",
      "type": "function"
    },
    {
      "inputs": [
        {
          "internalType": "bytes32",
          "name": "role",
          "type": "bytes32"
        },
        {
          "internalType": "address",
          "name": "account",
          "type": "address"
        }
      ],
      "name": "grantRole",
      "outputs": [],
      "stateMutability": "nonpayable",
      "type": "function"
    },
    {
      "inputs": [
        {
          "internalType": "bytes32",
          "name": "role",
          "type": "bytes32"
        },
        {
          "internalType": "address",
          "name": "account",
          "type": "address"
        }
      ],
      "name": "hasRole",
      "outputs": [
        {
          "internalType": "bool",
          "name": "",
          "type": "bool"
        }
      ],
      "stateMutability": "view",
      "type": "function"
    },
    {
      "inputs": [],
      "name": "isContributor",
      "outputs": [
        {
          "internalType": "bool",
          "name": "",
          "type": "bool"
        }
      ],
      "stateMutability": "view",
      "type": "function"
    },
    {
      "inputs": [],
      "name": "isStakeholder",
      "outputs": [
        {
          "internalType": "bool",
          "name": "",
          "type": "bool"
        }
      ],
      "stateMutability": "view",
      "type": "function"
    },
    {
      "inputs": [
        {
          "internalType": "uint256",
          "name": "proposalId",
          "type": "uint256"
        }
      ],
      "name": "payBeneficiary",
      "outputs": [
        {
          "internalType": "uint256",
          "name": "",
          "type": "uint256"
        }
      ],
      "stateMutability": "nonpayable",
      "type": "function"
    },
    {
      "inputs": [
        {
          "internalType": "bytes32",
          "name": "role",
          "type": "bytes32"
        },
        {
          "internalType": "address",
          "name": "account",
          "type": "address"
        }
      ],
      "name": "renounceRole",
      "outputs": [],
      "stateMutability": "nonpayable",
      "type": "function"
    },
    {
      "inputs": [
        {
          "internalType": "bytes32",
          "name": "role",
          "type": "bytes32"
        },
        {
          "internalType": "address",
          "name": "account",
          "type": "address"
        }
      ],
      "name": "revokeRole",
      "outputs": [],
      "stateMutability": "nonpayable",
      "type": "function"
    },
    {
      "inputs": [
        {
          "internalType": "bytes4",
          "name": "interfaceId",
          "type": "bytes4"
        }
      ],
      "name": "supportsInterface",
      "outputs": [
        {
          "internalType": "bool",
          "name": "",
          "type": "bool"
        }
      ],
      "stateMutability": "view",
      "type": "function"
    }
  ],
  "bytecode": "0x6101006040527fa0bb1af1c90aa52ed052b92714ff0087008cc720049bf1af77cca2600b31e80c6080908152507ff4bb84e1768dd286358a736d195a0b228621173f655a73b89bf8b191ed0ba07d60a090815250670de0b6b3a764000060c09081525060b463ffffffff1660e09063ffffffff1681525034801561008257600080fd5b50600160008190555060805160a05160c05160e051613f2b610111600039600061117201526000611b460152600081816105c20152818161085301528181610f1901528181610fe5015281816111fb01528181611260015281816114ed0152818161161301528181611acc01528181611bb40152611d770152600081816109cc0152611c350152613f2b6000f3fe60806040526004361061012a5760003560e01c80637cdc2eb7116100ab578063bd9728161161006f578063bd9728161461041a578063c02146ac14610445578063c7f758a814610470578063d547741f146104ad578063d6cc8016146104d6578063d7bb99ba146105015761012a565b80637cdc2eb7146103215780638bfa1f401461034a57806391d1485414610387578063a217fddf146103c4578063a22f1db7146103ef5761012a565b806336568abe116100f257806336568abe1461023a5780633cdb48c21461026357806362564c481461028e57806369a136dc146102b95780636a80d84d146102f65761012a565b806301ffc9a71461012f578063119c37c81461016c57806312065fe0146101a9578063248a9ca3146101d45780632f2ff15d14610211575b600080fd5b34801561013b57600080fd5b50610156600480360381019061015191906126e4565b61050b565b604051610163919061272c565b60405180910390f35b34801561017857600080fd5b50610193600480360381019061018e919061277d565b610585565b6040516101a091906127b9565b60405180910390f35b3480156101b557600080fd5b506101be6108a1565b6040516101cb91906127b9565b60405180910390f35b3480156101e057600080fd5b506101fb60048036038101906101f6919061280a565b6108e8565b6040516102089190612846565b60405180910390f35b34801561021d57600080fd5b50610238600480360381019061023391906128bf565b610908565b005b34801561024657600080fd5b50610261600480360381019061025c91906128bf565b610929565b005b34801561026f57600080fd5b506102786109ac565b60405161028591906127b9565b60405180910390f35b34801561029a57600080fd5b506102a3610a7a565b6040516102b09190612baa565b60405180910390f35b3480156102c557600080fd5b506102e060048036038101906102db919061277d565b610def565b6040516102ed9190612cbd565b60405180910390f35b34801561030257600080fd5b5061030b610edc565b60405161031891906127b9565b60405180910390f35b34801561032d57600080fd5b5061034860048036038101906103439190612e14565b610fc7565b005b34801561035657600080fd5b50610371600480360381019061036c9190612edf565b61123a565b60405161037e9190612f61565b60405180910390f35b34801561039357600080fd5b506103ae60048036038101906103a991906128bf565b611564565b6040516103bb919061272c565b60405180910390f35b3480156103d057600080fd5b506103d96115cf565b6040516103e69190612846565b60405180910390f35b3480156103fb57600080fd5b506104046115d6565b604051610411919061302b565b60405180910390f35b34801561042657600080fd5b5061042f61170f565b60405161043c91906127b9565b60405180910390f35b34801561045157600080fd5b5061045a611715565b604051610467919061272c565b60405180910390f35b34801561047c57600080fd5b506104976004803603810190610492919061277d565b61175e565b6040516104a49190613158565b60405180910390f35b3480156104b957600080fd5b506104d460048036038101906104cf91906128bf565b611a1a565b005b3480156104e257600080fd5b506104eb611a3b565b6040516104f8919061272c565b60405180910390f35b610509611a84565b005b60007f7965db0b000000000000000000000000000000000000000000000000000000007bffffffffffffffffffffffffffffffffffffffffffffffffffffffff1916827bffffffffffffffffffffffffffffffffffffffffffffffffffffffff1916148061057e575061057d82611daf565b5b9050919050565b60006040518060400160405280601f81526020017f556e617574686f72697a65643a205374616b65686f6c64657273206f6e6c79008152506105e77f000000000000000000000000000000000000000000000000000000000000000033611564565b8190610629576040517f08c379a000000000000000000000000000000000000000000000000000000000815260040161062091906131c4565b60405180910390fd5b50610632611e19565b600060046000858152602001908152602001600020905080600101546003541015610692576040517f08c379a000000000000000000000000000000000000000000000000000000000815260040161068990613232565b60405180910390fd5b8060070160019054906101000a900460ff16156106e4576040517f08c379a00000000000000000000000000000000000000000000000000000000081526004016106db9061329e565b60405180910390fd5b806004015481600301541161072e576040517f08c379a00000000000000000000000000000000000000000000000000000000081526004016107259061330a565b60405180910390fd5b60018160070160016101000a81548160ff021916908315150217905550338160090160006101000a81548173ffffffffffffffffffffffffffffffffffffffff021916908373ffffffffffffffffffffffffffffffffffffffff1602179055508060010154600360008282546107a49190613359565b925050819055506107dd8160070160029054906101000a900473ffffffffffffffffffffffffffffffffffffffff168260010154611e68565b508060070160029054906101000a900473ffffffffffffffffffffffffffffffffffffffff1673ffffffffffffffffffffffffffffffffffffffff163373ffffffffffffffffffffffffffffffffffffffff167fa596782d699d74613fcbf59d33e720baabd313d6be9c95e2268f305430305eb77f000000000000000000000000000000000000000000000000000000000000000084600101546040516108859291906133d9565b60405180910390a360035492505061089b611f20565b50919050565b6000600760003373ffffffffffffffffffffffffffffffffffffffff1673ffffffffffffffffffffffffffffffffffffffff16815260200190815260200160002054905090565b600060016000838152602001908152602001600020600101549050919050565b610911826108e8565b61091a81611f2a565b6109248383611f3e565b505050565b61093161201e565b73ffffffffffffffffffffffffffffffffffffffff168173ffffffffffffffffffffffffffffffffffffffff161461099e576040517f08c379a000000000000000000000000000000000000000000000000000000000815260040161099590613487565b60405180910390fd5b6109a88282612026565b5050565b6000604051806060016040528060218152602001613ea2602191396109f17f000000000000000000000000000000000000000000000000000000000000000033611564565b8190610a33576040517f08c379a0000000000000000000000000000000000000000000000000000000008152600401610a2a91906131c4565b60405180910390fd5b50600760003373ffffffffffffffffffffffffffffffffffffffff1673ffffffffffffffffffffffffffffffffffffffff1681526020019081526020016000205491505090565b6060600260009054906101000a900463ffffffff1663ffffffff1667ffffffffffffffff811115610aae57610aad612ce9565b5b604051908082528060200260200182016040528015610ae757816020015b610ad4612598565b815260200190600190039081610acc5790505b50905060005b600260009054906101000a900463ffffffff1663ffffffff16811015610deb5760046000828152602001908152602001600020604051806101800160405290816000820154815260200160018201548152602001600282015481526020016003820154815260200160048201548152602001600582018054610b6e906134d6565b80601f0160208091040260200160405190810160405280929190818152602001828054610b9a906134d6565b8015610be75780601f10610bbc57610100808354040283529160200191610be7565b820191906000526020600020905b815481529060010190602001808311610bca57829003601f168201915b50505050508152602001600682018054610c00906134d6565b80601f0160208091040260200160405190810160405280929190818152602001828054610c2c906134d6565b8015610c795780601f10610c4e57610100808354040283529160200191610c79565b820191906000526020600020905b815481529060010190602001808311610c5c57829003601f168201915b505050505081526020016007820160009054906101000a900460ff161515151581526020016007820160019054906101000a900460ff161515151581526020016007820160029054906101000a900473ffffffffffffffffffffffffffffffffffffffff1673ffffffffffffffffffffffffffffffffffffffff1673ffffffffffffffffffffffffffffffffffffffff1681526020016008820160009054906101000a900473ffffffffffffffffffffffffffffffffffffffff1673ffffffffffffffffffffffffffffffffffffffff1673ffffffffffffffffffffffffffffffffffffffff1681526020016009820160009054906101000a900473ffffffffffffffffffffffffffffffffffffffff1673ffffffffffffffffffffffffffffffffffffffff1673ffffffffffffffffffffffffffffffffffffffff1681525050828281518110610dcd57610dcc613507565b5b60200260200101819052508080610de390613536565b915050610aed565b5090565b606060066000838152602001908152602001600020805480602002602001604051908101604052809291908181526020016000905b82821015610ed157838290600052602060002090600302016040518060600160405290816000820160009054906101000a900473ffffffffffffffffffffffffffffffffffffffff1673ffffffffffffffffffffffffffffffffffffffff1673ffffffffffffffffffffffffffffffffffffffff168152602001600182015481526020016002820160009054906101000a900460ff16151515158152505081526020019060010190610e24565b505050509050919050565b60006040518060400160405280601f81526020017f556e617574686f72697a65643a206e6f742061207374616b65686f6c64657200815250610f3e7f000000000000000000000000000000000000000000000000000000000000000033611564565b8190610f80576040517f08c379a0000000000000000000000000000000000000000000000000000000008152600401610f7791906131c4565b60405180910390fd5b50600860003373ffffffffffffffffffffffffffffffffffffffff1673ffffffffffffffffffffffffffffffffffffffff1681526020019081526020016000205491505090565b604051806060016040528060338152602001613ec36033913961100a7f000000000000000000000000000000000000000000000000000000000000000033611564565b819061104c576040517f08c379a000000000000000000000000000000000000000000000000000000000815260040161104391906131c4565b60405180910390fd5b5060006002600081819054906101000a900463ffffffff16809291906110719061358e565b91906101000a81548163ffffffff021916908363ffffffff16021790555090506000600460008363ffffffff16815260200190815260200160002090508163ffffffff168160000181905550338160080160006101000a81548173ffffffffffffffffffffffffffffffffffffffff021916908373ffffffffffffffffffffffffffffffffffffffff160217905550868160050190816111119190613766565b50858160060190816111239190613766565b50848160070160026101000a81548173ffffffffffffffffffffffffffffffffffffffff021916908373ffffffffffffffffffffffffffffffffffffffff1602179055508381600101819055507f000000000000000000000000000000000000000000000000000000000000000063ffffffff16426111a29190613838565b81600201819055508473ffffffffffffffffffffffffffffffffffffffff163373ffffffffffffffffffffffffffffffffffffffff167fa596782d699d74613fcbf59d33e720baabd313d6be9c95e2268f305430305eb77f0000000000000000000000000000000000000000000000000000000000000000876040516112299291906138b8565b60405180910390a350505050505050565b61124261263f565b604051806060016040528060308152602001613e72603091396112857f000000000000000000000000000000000000000000000000000000000000000033611564565b81906112c7576040517f08c379a00000000000000000000000000000000000000000000000000000000081526004016112be91906131c4565b60405180910390fd5b5060006004600086815260200190815260200160002090506112e881612108565b831561130d5780600301600081548092919061130390613536565b9190505550611328565b80600401600081548092919061132290613536565b91905055505b600560003373ffffffffffffffffffffffffffffffffffffffff1673ffffffffffffffffffffffffffffffffffffffff16815260200190815260200160002081600001549080600181540180825580915050600190039060005260206000200160009091909190915055600660008260000154815260200190815260200160002060405180606001604052803373ffffffffffffffffffffffffffffffffffffffff168152602001428152602001861515815250908060018154018082558091505060019003906000526020600020906003020160009091909190915060008201518160000160006101000a81548173ffffffffffffffffffffffffffffffffffffffff021916908373ffffffffffffffffffffffffffffffffffffffff1602179055506020820151816001015560408201518160020160006101000a81548160ff02191690831515021790555050508060070160029054906101000a900473ffffffffffffffffffffffffffffffffffffffff1673ffffffffffffffffffffffffffffffffffffffff163373ffffffffffffffffffffffffffffffffffffffff167fa596782d699d74613fcbf59d33e720baabd313d6be9c95e2268f305430305eb77f0000000000000000000000000000000000000000000000000000000000000000846001015460405161151f929190613940565b60405180910390a360405180606001604052803373ffffffffffffffffffffffffffffffffffffffff1681526020014281526020018515158152509250505092915050565b60006001600084815260200190815260200160002060000160008373ffffffffffffffffffffffffffffffffffffffff1673ffffffffffffffffffffffffffffffffffffffff16815260200190815260200160002060009054906101000a900460ff16905092915050565b6000801b81565b60606040518060400160405280601f81526020017f556e617574686f72697a65643a206e6f742061207374616b65686f6c646572008152506116387f000000000000000000000000000000000000000000000000000000000000000033611564565b819061167a576040517f08c379a000000000000000000000000000000000000000000000000000000000815260040161167191906131c4565b60405180910390fd5b50600560003373ffffffffffffffffffffffffffffffffffffffff1673ffffffffffffffffffffffffffffffffffffffff16815260200190815260200160002080548060200260200160405190810160405280929190818152602001828054801561170457602002820191906000526020600020905b8154815260200190600101908083116116f0575b505050505091505090565b60035481565b600080600860003373ffffffffffffffffffffffffffffffffffffffff1673ffffffffffffffffffffffffffffffffffffffff1681526020019081526020016000205411905090565b611766612598565b600460008381526020019081526020016000206040518061018001604052908160008201548152602001600182015481526020016002820154815260200160038201548152602001600482015481526020016005820180546117c7906134d6565b80601f01602080910402602001604051908101604052809291908181526020018280546117f3906134d6565b80156118405780601f1061181557610100808354040283529160200191611840565b820191906000526020600020905b81548152906001019060200180831161182357829003601f168201915b50505050508152602001600682018054611859906134d6565b80601f0160208091040260200160405190810160405280929190818152602001828054611885906134d6565b80156118d25780601f106118a7576101008083540402835291602001916118d2565b820191906000526020600020905b8154815290600101906020018083116118b557829003601f168201915b505050505081526020016007820160009054906101000a900460ff161515151581526020016007820160019054906101000a900460ff161515151581526020016007820160029054906101000a900473ffffffffffffffffffffffffffffffffffffffff1673ffffffffffffffffffffffffffffffffffffffff1673ffffffffffffffffffffffffffffffffffffffff1681526020016008820160009054906101000a900473ffffffffffffffffffffffffffffffffffffffff1673ffffffffffffffffffffffffffffffffffffffff1673ffffffffffffffffffffffffffffffffffffffff1681526020016009820160009054906101000a900473ffffffffffffffffffffffffffffffffffffffff1673ffffffffffffffffffffffffffffffffffffffff1673ffffffffffffffffffffffffffffffffffffffff16815250509050919050565b611a23826108e8565b611a2c81611f2a565b611a368383612026565b505050565b600080600760003373ffffffffffffffffffffffffffffffffffffffff1673ffffffffffffffffffffffffffffffffffffffff1681526020019081526020016000205411905090565b60003411611ac7576040517f08c379a0000000000000000000000000000000000000000000000000000000008152600401611abe906139ee565b60405180910390fd5b611af17f000000000000000000000000000000000000000000000000000000000000000033611564565b611c6057600034600760003373ffffffffffffffffffffffffffffffffffffffff1673ffffffffffffffffffffffffffffffffffffffff16815260200190815260200160002054611b429190613838565b90507f00000000000000000000000000000000000000000000000000000000000000008110611bda5780600860003373ffffffffffffffffffffffffffffffffffffffff1673ffffffffffffffffffffffffffffffffffffffff16815260200190815260200160002081905550611bd97f00000000000000000000000000000000000000000000000000000000000000003361229c565b5b34600760003373ffffffffffffffffffffffffffffffffffffffff1673ffffffffffffffffffffffffffffffffffffffff1681526020019081526020016000206000828254611c299190613838565b92505081905550611c5a7f000000000000000000000000000000000000000000000000000000000000000033611f3e565b50611d0d565b34600760003373ffffffffffffffffffffffffffffffffffffffff1673ffffffffffffffffffffffffffffffffffffffff1681526020019081526020016000206000828254611caf9190613838565b9250508190555034600860003373ffffffffffffffffffffffffffffffffffffffff1673ffffffffffffffffffffffffffffffffffffffff1681526020019081526020016000206000828254611d059190613838565b925050819055505b3460036000828254611d1f9190613838565b925050819055503073ffffffffffffffffffffffffffffffffffffffff163373ffffffffffffffffffffffffffffffffffffffff167fa596782d699d74613fcbf59d33e720baabd313d6be9c95e2268f305430305eb77f000000000000000000000000000000000000000000000000000000000000000034604051611da5929190613a5a565b60405180910390a3565b60007f01ffc9a7000000000000000000000000000000000000000000000000000000007bffffffffffffffffffffffffffffffffffffffffffffffffffffffff1916827bffffffffffffffffffffffffffffffffffffffffffffffffffffffff1916149050919050565b600260005403611e5e576040517f08c379a0000000000000000000000000000000000000000000000000000000008152600401611e5590613ae2565b60405180910390fd5b6002600081905550565b6000808373ffffffffffffffffffffffffffffffffffffffff1683604051611e8f90613b33565b60006040518083038185875af1925050503d8060008114611ecc576040519150601f19603f3d011682016040523d82523d6000602084013e611ed1565b606091505b5050905080611f15576040517f08c379a0000000000000000000000000000000000000000000000000000000008152600401611f0c90613b94565b60405180910390fd5b600191505092915050565b6001600081905550565b611f3b81611f3661201e565b6122aa565b50565b611f488282611564565b61201a57600180600084815260200190815260200160002060000160008373ffffffffffffffffffffffffffffffffffffffff1673ffffffffffffffffffffffffffffffffffffffff16815260200190815260200160002060006101000a81548160ff021916908315150217905550611fbf61201e565b73ffffffffffffffffffffffffffffffffffffffff168173ffffffffffffffffffffffffffffffffffffffff16837f2f8788117e7eff1d82e926ec794901d17c78024a50270940304540a733656f0d60405160405180910390a45b5050565b600033905090565b6120308282611564565b156121045760006001600084815260200190815260200160002060000160008373ffffffffffffffffffffffffffffffffffffffff1673ffffffffffffffffffffffffffffffffffffffff16815260200190815260200160002060006101000a81548160ff0219169083151502179055506120a961201e565b73ffffffffffffffffffffffffffffffffffffffff168173ffffffffffffffffffffffffffffffffffffffff16837ff6391f5c32d9c69d2a47ea670b442974b53935d1edc7fd64eb21e047a839171b60405160405180910390a45b5050565b8060070160009054906101000a900460ff1680612129575042816002015411155b156121865760018160070160006101000a81548160ff0219169083151502179055506040517f08c379a000000000000000000000000000000000000000000000000000000000815260040161217d90613c00565b60405180910390fd5b6000600560003373ffffffffffffffffffffffffffffffffffffffff1673ffffffffffffffffffffffffffffffffffffffff16815260200190815260200160002080548060200260200160405190810160405280929190818152602001828054801561221157602002820191906000526020600020905b8154815260200190600101908083116121fd575b5050505050905060005b81518110156122975781818151811061223757612236613507565b5b6020026020010151836000015403612284576040517f08c379a000000000000000000000000000000000000000000000000000000000815260040161227b90613c6c565b60405180910390fd5b808061228f90613536565b91505061221b565b505050565b6122a68282611f3e565b5050565b6122b48282611564565b61232b576122c18161232f565b6122cf8360001c602061235c565b6040516020016122e0929190613d60565b6040516020818303038152906040526040517f08c379a000000000000000000000000000000000000000000000000000000000815260040161232291906131c4565b60405180910390fd5b5050565b60606123558273ffffffffffffffffffffffffffffffffffffffff16601460ff1661235c565b9050919050565b60606000600283600261236f9190613d9a565b6123799190613838565b67ffffffffffffffff81111561239257612391612ce9565b5b6040519080825280601f01601f1916602001820160405280156123c45781602001600182028036833780820191505090505b5090507f3000000000000000000000000000000000000000000000000000000000000000816000815181106123fc576123fb613507565b5b60200101907effffffffffffffffffffffffffffffffffffffffffffffffffffffffffffff1916908160001a9053507f7800000000000000000000000000000000000000000000000000000000000000816001815181106124605761245f613507565b5b60200101907effffffffffffffffffffffffffffffffffffffffffffffffffffffffffffff1916908160001a905350600060018460026124a09190613d9a565b6124aa9190613838565b90505b600181111561254a577f3031323334353637383961626364656600000000000000000000000000000000600f8616601081106124ec576124eb613507565b5b1a60f81b82828151811061250357612502613507565b5b60200101907effffffffffffffffffffffffffffffffffffffffffffffffffffffffffffff1916908160001a905350600485901c94508061254390613ddc565b90506124ad565b506000841461258e576040517f08c379a000000000000000000000000000000000000000000000000000000000815260040161258590613e51565b60405180910390fd5b8091505092915050565b60405180610180016040528060008152602001600081526020016000815260200160008152602001600081526020016060815260200160608152602001600015158152602001600015158152602001600073ffffffffffffffffffffffffffffffffffffffff168152602001600073ffffffffffffffffffffffffffffffffffffffff168152602001600073ffffffffffffffffffffffffffffffffffffffff1681525090565b6040518060600160405280600073ffffffffffffffffffffffffffffffffffffffff168152602001600081526020016000151581525090565b6000604051905090565b600080fd5b600080fd5b60007fffffffff0000000000000000000000000000000000000000000000000000000082169050919050565b6126c18161268c565b81146126cc57600080fd5b50565b6000813590506126de816126b8565b92915050565b6000602082840312156126fa576126f9612682565b5b6000612708848285016126cf565b91505092915050565b60008115159050919050565b61272681612711565b82525050565b6000602082019050612741600083018461271d565b92915050565b6000819050919050565b61275a81612747565b811461276557600080fd5b50565b60008135905061277781612751565b92915050565b60006020828403121561279357612792612682565b5b60006127a184828501612768565b91505092915050565b6127b381612747565b82525050565b60006020820190506127ce60008301846127aa565b92915050565b6000819050919050565b6127e7816127d4565b81146127f257600080fd5b50565b600081359050612804816127de565b92915050565b6000602082840312156128205761281f612682565b5b600061282e848285016127f5565b91505092915050565b612840816127d4565b82525050565b600060208201905061285b6000830184612837565b92915050565b600073ffffffffffffffffffffffffffffffffffffffff82169050919050565b600061288c82612861565b9050919050565b61289c81612881565b81146128a757600080fd5b50565b6000813590506128b981612893565b92915050565b600080604083850312156128d6576128d5612682565b5b60006128e4858286016127f5565b92505060206128f5858286016128aa565b9150509250929050565b600081519050919050565b600082825260208201905092915050565b6000819050602082019050919050565b61293481612747565b82525050565b600081519050919050565b600082825260208201905092915050565b60005b83811015612974578082015181840152602081019050612959565b60008484015250505050565b6000601f19601f8301169050919050565b600061299c8261293a565b6129a68185612945565b93506129b6818560208601612956565b6129bf81612980565b840191505092915050565b6129d381612711565b82525050565b60006129e482612861565b9050919050565b6129f4816129d9565b82525050565b612a0381612881565b82525050565b600061018083016000830151612a22600086018261292b565b506020830151612a35602086018261292b565b506040830151612a48604086018261292b565b506060830151612a5b606086018261292b565b506080830151612a6e608086018261292b565b5060a083015184820360a0860152612a868282612991565b91505060c083015184820360c0860152612aa08282612991565b91505060e0830151612ab560e08601826129ca565b50610100830151612aca6101008601826129ca565b50610120830151612adf6101208601826129eb565b50610140830151612af46101408601826129fa565b50610160830151612b096101608601826129fa565b508091505092915050565b6000612b208383612a09565b905092915050565b6000602082019050919050565b6000612b40826128ff565b612b4a818561290a565b935083602082028501612b5c8561291b565b8060005b85811015612b985784840389528151612b798582612b14565b9450612b8483612b28565b925060208a01995050600181019050612b60565b50829750879550505050505092915050565b60006020820190508181036000830152612bc48184612b35565b905092915050565b600081519050919050565b600082825260208201905092915050565b6000819050602082019050919050565b606082016000820151612c0e60008501826129fa565b506020820151612c21602085018261292b565b506040820151612c3460408501826129ca565b50505050565b6000612c468383612bf8565b60608301905092915050565b6000602082019050919050565b6000612c6a82612bcc565b612c748185612bd7565b9350612c7f83612be8565b8060005b83811015612cb0578151612c978882612c3a565b9750612ca283612c52565b925050600181019050612c83565b5085935050505092915050565b60006020820190508181036000830152612cd78184612c5f565b905092915050565b600080fd5b600080fd5b7f4e487b7100000000000000000000000000000000000000000000000000000000600052604160045260246000fd5b612d2182612980565b810181811067ffffffffffffffff82111715612d4057612d3f612ce9565b5b80604052505050565b6000612d53612678565b9050612d5f8282612d18565b919050565b600067ffffffffffffffff821115612d7f57612d7e612ce9565b5b612d8882612980565b9050602081019050919050565b82818337600083830152505050565b6000612db7612db284612d64565b612d49565b905082815260208101848484011115612dd357612dd2612ce4565b5b612dde848285612d95565b509392505050565b600082601f830112612dfb57612dfa612cdf565b5b8135612e0b848260208601612da4565b91505092915050565b60008060008060808587031215612e2e57612e2d612682565b5b600085013567ffffffffffffffff811115612e4c57612e4b612687565b5b612e5887828801612de6565b945050602085013567ffffffffffffffff811115612e7957612e78612687565b5b612e8587828801612de6565b9350506040612e96878288016128aa565b9250506060612ea787828801612768565b91505092959194509250565b612ebc81612711565b8114612ec757600080fd5b50565b600081359050612ed981612eb3565b92915050565b60008060408385031215612ef657612ef5612682565b5b6000612f0485828601612768565b9250506020612f1585828601612eca565b9150509250929050565b606082016000820151612f3560008501826129fa565b506020820151612f48602085018261292b565b506040820151612f5b60408501826129ca565b50505050565b6000606082019050612f766000830184612f1f565b92915050565b600081519050919050565b600082825260208201905092915050565b6000819050602082019050919050565b6000612fb4838361292b565b60208301905092915050565b6000602082019050919050565b6000612fd882612f7c565b612fe28185612f87565b9350612fed83612f98565b8060005b8381101561301e5781516130058882612fa8565b975061301083612fc0565b925050600181019050612ff1565b5085935050505092915050565b600060208201905081810360008301526130458184612fcd565b905092915050565b600061018083016000830151613066600086018261292b565b506020830151613079602086018261292b565b50604083015161308c604086018261292b565b50606083015161309f606086018261292b565b5060808301516130b2608086018261292b565b5060a083015184820360a08601526130ca8282612991565b91505060c083015184820360c08601526130e48282612991565b91505060e08301516130f960e08601826129ca565b5061010083015161310e6101008601826129ca565b506101208301516131236101208601826129eb565b506101408301516131386101408601826129fa565b5061016083015161314d6101608601826129fa565b508091505092915050565b60006020820190508181036000830152613172818461304d565b905092915050565b600082825260208201905092915050565b60006131968261293a565b6131a0818561317a565b93506131b0818560208601612956565b6131b981612980565b840191505092915050565b600060208201905081810360008301526131de818461318b565b905092915050565b7f496e73756666696369656e742066756e64000000000000000000000000000000600082015250565b600061321c60118361317a565b9150613227826131e6565b602082019050919050565b6000602082019050818103600083015261324b8161320f565b9050919050565b7f5061796d656e742073656e74206265666f726500000000000000000000000000600082015250565b600061328860138361317a565b915061329382613252565b602082019050919050565b600060208201905081810360008301526132b78161327b565b9050919050565b7f496e73756666696369656e7420766f7465730000000000000000000000000000600082015250565b60006132f460128361317a565b91506132ff826132be565b602082019050919050565b60006020820190508181036000830152613323816132e7565b9050919050565b7f4e487b7100000000000000000000000000000000000000000000000000000000600052601160045260246000fd5b600061336482612747565b915061336f83612747565b92508282039050818111156133875761338661332a565b5b92915050565b7f5041594d454e54205452414e5346455245440000000000000000000000000000600082015250565b60006133c360128361317a565b91506133ce8261338d565b602082019050919050565b60006060820190506133ee6000830185612837565b81810360208301526133ff816133b6565b905061340e60408301846127aa565b9392505050565b7f416363657373436f6e74726f6c3a2063616e206f6e6c792072656e6f756e636560008201527f20726f6c657320666f722073656c660000000000000000000000000000000000602082015250565b6000613471602f8361317a565b915061347c82613415565b604082019050919050565b600060208201905081810360008301526134a081613464565b9050919050565b7f4e487b7100000000000000000000000000000000000000000000000000000000600052602260045260246000fd5b600060028204905060018216806134ee57607f821691505b602082108103613501576135006134a7565b5b50919050565b7f4e487b7100000000000000000000000000000000000000000000000000000000600052603260045260246000fd5b600061354182612747565b91507fffffffffffffffffffffffffffffffffffffffffffffffffffffffffffffffff82036135735761357261332a565b5b600182019050919050565b600063ffffffff82169050919050565b60006135998261357e565b915063ffffffff82036135af576135ae61332a565b5b600182019050919050565b60008190508160005260206000209050919050565b60006020601f8301049050919050565b600082821b905092915050565b60006008830261361c7fffffffffffffffffffffffffffffffffffffffffffffffffffffffffffffffff826135df565b61362686836135df565b95508019841693508086168417925050509392505050565b6000819050919050565b600061366361365e61365984612747565b61363e565b612747565b9050919050565b6000819050919050565b61367d83613648565b6136916136898261366a565b8484546135ec565b825550505050565b600090565b6136a6613699565b6136b1818484613674565b505050565b5b818110156136d5576136ca60008261369e565b6001810190506136b7565b5050565b601f82111561371a576136eb816135ba565b6136f4846135cf565b81016020851015613703578190505b61371761370f856135cf565b8301826136b6565b50505b505050565b600082821c905092915050565b600061373d6000198460080261371f565b1980831691505092915050565b6000613756838361372c565b9150826002028217905092915050565b61376f8261293a565b67ffffffffffffffff81111561378857613787612ce9565b5b61379282546134d6565b61379d8282856136d9565b600060209050601f8311600181146137d057600084156137be578287015190505b6137c8858261374a565b865550613830565b601f1984166137de866135ba565b60005b82811015613806578489015182556001820191506020850194506020810190506137e1565b86831015613823578489015161381f601f89168261372c565b8355505b6001600288020188555050505b505050505050565b600061384382612747565b915061384e83612747565b92508282019050808211156138665761386561332a565b5b92915050565b7f50524f504f53414c205241495345440000000000000000000000000000000000600082015250565b60006138a2600f8361317a565b91506138ad8261386c565b602082019050919050565b60006060820190506138cd6000830185612837565b81810360208301526138de81613895565b90506138ed60408301846127aa565b9392505050565b7f50524f504f53414c20564f544500000000000000000000000000000000000000600082015250565b600061392a600d8361317a565b9150613935826138f4565b602082019050919050565b60006060820190506139556000830185612837565b81810360208301526139668161391d565b905061397560408301846127aa565b9392505050565b7f436f6e747269627574696e67207a65726f206973206e6f7420616c6c6f77656460008201527f2e00000000000000000000000000000000000000000000000000000000000000602082015250565b60006139d860218361317a565b91506139e38261397c565b604082019050919050565b60006020820190508181036000830152613a07816139cb565b9050919050565b7f434f4e545249425554494f4e2052454345495645440000000000000000000000600082015250565b6000613a4460158361317a565b9150613a4f82613a0e565b602082019050919050565b6000606082019050613a6f6000830185612837565b8181036020830152613a8081613a37565b9050613a8f60408301846127aa565b9392505050565b7f5265656e7472616e637947756172643a207265656e7472616e742063616c6c00600082015250565b6000613acc601f8361317a565b9150613ad782613a96565b602082019050919050565b60006020820190508181036000830152613afb81613abf565b9050919050565b600081905092915050565b50565b6000613b1d600083613b02565b9150613b2882613b0d565b600082019050919050565b6000613b3e82613b10565b9150819050919050565b7f5061796d656e74206661696c6564000000000000000000000000000000000000600082015250565b6000613b7e600e8361317a565b9150613b8982613b48565b602082019050919050565b60006020820190508181036000830152613bad81613b71565b9050919050565b7f70726f706f73616c206475726174696f6e206578706972656400000000000000600082015250565b6000613bea60198361317a565b9150613bf582613bb4565b602082019050919050565b60006020820190508181036000830152613c1981613bdd565b9050919050565b7f446f75626c6520766f74696e67206e6f7420616c6c6f77656400000000000000600082015250565b6000613c5660198361317a565b9150613c6182613c20565b602082019050919050565b60006020820190508181036000830152613c8581613c49565b9050919050565b600081905092915050565b7f416363657373436f6e74726f6c3a206163636f756e7420000000000000000000600082015250565b6000613ccd601783613c8c565b9150613cd882613c97565b601782019050919050565b6000613cee8261293a565b613cf88185613c8c565b9350613d08818560208601612956565b80840191505092915050565b7f206973206d697373696e6720726f6c6520000000000000000000000000000000600082015250565b6000613d4a601183613c8c565b9150613d5582613d14565b601182019050919050565b6000613d6b82613cc0565b9150613d778285613ce3565b9150613d8282613d3d565b9150613d8e8284613ce3565b91508190509392505050565b6000613da582612747565b9150613db083612747565b9250828202613dbe81612747565b91508282048414831517613dd557613dd461332a565b5b5092915050565b6000613de782612747565b915060008203613dfa57613df961332a565b5b600182039050919050565b7f537472696e67733a20686578206c656e67746820696e73756666696369656e74600082015250565b6000613e3b60208361317a565b9150613e4682613e05565b602082019050919050565b60006020820190508181036000830152613e6a81613e2e565b905091905056fe556e617574686f72697a6564206163636573733a205374616b65686f6c64657273206f6e6c79207065726d697474656444656e6965643a2055736572206973206e6f74206120636f6e7472696275746f7270726f706f73616c206372656174696f6e20616c6c6f77656420666f7220746865207374616b65686f6c64657273206f6e6c79a264697066735822122077c231e8fa76d981e18e629fd647098632d4a0cc590d6e02ddc38fd61332347464736f6c63430008120033",
  "linkReferences": {},
  "deployedLinkReferences": {}
}