{
  "_format": "hh-sol-artifact-1",
  "contractName": "Dao",
  "sourceName": "contracts/Dao.sol",
  "abi": [
    {
      "anonymous": false,
      "inputs": [
        {
          "indexed": true,
          "internalType": "address",
          "name": "initator",
          "type": "address"
        },
        {
          "indexed": false,
          "internalType": "bytes32",
          "name": "role",
          "type": "bytes32"
        },
        {
          "indexed": false,
          "internalType": "string",
          "name": "message",
          "type": "string"
        },
        {
          "indexed": true,
          "internalType": "address",
          "name": "beneficiary",
          "type": "address"
        },
        {
          "indexed": false,
          "internalType": "uint256",
          "name": "amount",
          "type": "uint256"
        }
      ],
      "name": "Action",
      "type": "event"
    },
    {
      "anonymous": false,
      "inputs": [
        {
          "indexed": true,
          "internalType": "bytes32",
          "name": "role",
          "type": "bytes32"
        },
        {
          "indexed": true,
          "internalType": "bytes32",
          "name": "previousAdminRole",
          "type": "bytes32"
        },
        {
          "indexed": true,
          "internalType": "bytes32",
          "name": "newAdminRole",
          "type": "bytes32"
        }
      ],
      "name": "RoleAdminChanged",
      "type": "event"
    },
    {
      "anonymous": false,
      "inputs": [
        {
          "indexed": true,
          "internalType": "bytes32",
          "name": "role",
          "type": "bytes32"
        },
        {
          "indexed": true,
          "internalType": "address",
          "name": "account",
          "type": "address"
        },
        {
          "indexed": true,
          "internalType": "address",
          "name": "sender",
          "type": "address"
        }
      ],
      "name": "RoleGranted",
      "type": "event"
    },
    {
      "anonymous": false,
      "inputs": [
        {
          "indexed": true,
          "internalType": "bytes32",
          "name": "role",
          "type": "bytes32"
        },
        {
          "indexed": true,
          "internalType": "address",
          "name": "account",
          "type": "address"
        },
        {
          "indexed": true,
          "internalType": "address",
          "name": "sender",
          "type": "address"
        }
      ],
      "name": "RoleRevoked",
      "type": "event"
    },
    {
      "inputs": [],
      "name": "DEFAULT_ADMIN_ROLE",
      "outputs": [
        {
          "internalType": "bytes32",
          "name": "",
          "type": "bytes32"
        }
      ],
      "stateMutability": "view",
      "type": "function"
    },
    {
      "inputs": [],
      "name": "contribute",
      "outputs": [],
      "stateMutability": "payable",
      "type": "function"
    },
    {
      "inputs": [
        {
          "internalType": "string",
          "name": "title",
          "type": "string"
        },
        {
          "internalType": "string",
          "name": "description",
          "type": "string"
        },
        {
          "internalType": "address",
          "name": "beneficiary",
          "type": "address"
        },
        {
          "internalType": "uint256",
          "name": "amount",
          "type": "uint256"
        }
      ],
      "name": "createProposal",
      "outputs": [],
      "stateMutability": "nonpayable",
      "type": "function"
    },
    {
      "inputs": [],
      "name": "daoBalance",
      "outputs": [
        {
          "internalType": "uint256",
          "name": "",
          "type": "uint256"
        }
      ],
      "stateMutability": "view",
      "type": "function"
    },
    {
      "inputs": [
        {
          "internalType": "uint256",
          "name": "proposalId",
          "type": "uint256"
        }
      ],
      "name": "getProposal",
      "outputs": [
        {
          "components": [
            {
              "internalType": "uint256",
              "name": "id",
              "type": "uint256"
            },
            {
              "internalType": "uint256",
              "name": "amount",
              "type": "uint256"
            },
            {
              "internalType": "uint256",
              "name": "duration",
              "type": "uint256"
            },
            {
              "internalType": "uint256",
              "name": "upvotes",
              "type": "uint256"
            },
            {
              "internalType": "uint256",
              "name": "downvotes",
              "type": "uint256"
            },
            {
              "internalType": "string",
              "name": "title",
              "type": "string"
            },
            {
              "internalType": "string",
              "name": "description",
              "type": "string"
            },
            {
              "internalType": "bool",
              "name": "passed",
              "type": "bool"
            },
            {
              "internalType": "bool",
              "name": "paid",
              "type": "bool"
            },
            {
              "internalType": "address payable",
              "name": "beneficiary",
              "type": "address"
            },
            {
              "internalType": "address",
              "name": "proposer",
              "type": "address"
            },
            {
              "internalType": "address",
              "name": "executor",
              "type": "address"
            }
          ],
          "internalType": "struct Dao.ProposalStruct",
          "name": "",
          "type": "tuple"
        }
      ],
      "stateMutability": "view",
      "type": "function"
    },
    {
      "inputs": [],
      "name": "getProposals",
      "outputs": [
        {
          "components": [
            {
              "internalType": "uint256",
              "name": "id",
              "type": "uint256"
            },
            {
              "internalType": "uint256",
              "name": "amount",
              "type": "uint256"
            },
            {
              "internalType": "uint256",
              "name": "duration",
              "type": "uint256"
            },
            {
              "internalType": "uint256",
              "name": "upvotes",
              "type": "uint256"
            },
            {
              "internalType": "uint256",
              "name": "downvotes",
              "type": "uint256"
            },
            {
              "internalType": "string",
              "name": "title",
              "type": "string"
            },
            {
              "internalType": "string",
              "name": "description",
              "type": "string"
            },
            {
              "internalType": "bool",
              "name": "passed",
              "type": "bool"
            },
            {
              "internalType": "bool",
              "name": "paid",
              "type": "bool"
            },
            {
              "internalType": "address payable",
              "name": "beneficiary",
              "type": "address"
            },
            {
              "internalType": "address",
              "name": "proposer",
              "type": "address"
            },
            {
              "internalType": "address",
              "name": "executor",
              "type": "address"
            }
          ],
          "internalType": "struct Dao.ProposalStruct[]",
          "name": "proposals",
          "type": "tuple[]"
        }
      ],
      "stateMutability": "view",
      "type": "function"
    },
    {
      "inputs": [
        {
          "internalType": "bytes32",
          "name": "role",
          "type": "bytes32"
        }
      ],
      "name": "getRoleAdmin",
      "outputs": [
        {
          "internalType": "bytes32",
          "name": "",
          "type": "bytes32"
        }
      ],
      "stateMutability": "view",
      "type": "function"
    },
    {
      "inputs": [],
      "name": "getStakeholderBalance",
      "outputs": [
        {
          "internalType": "uint256",
          "name": "",
          "type": "uint256"
        }
      ],
      "stateMutability": "view",
      "type": "function"
    },
    {
      "inputs": [],
      "name": "getStakeholderVotes",
      "outputs": [
        {
          "internalType": "uint256[]",
          "name": "",
          "type": "uint256[]"
        }
      ],
      "stateMutability": "view",
      "type": "function"
    },
    {
      "inputs": [
        {
          "internalType": "uint256",
          "name": "proposalId",
          "type": "uint256"
        }
      ],
      "name": "getVotesOf",
      "outputs": [
        {
          "components": [
            {
              "internalType": "address",
              "name": "voter",
              "type": "address"
            },
            {
              "internalType": "uint256",
              "name": "timestamp",
              "type": "uint256"
            },
            {
              "internalType": "bool",
              "name": "choosen",
              "type": "bool"
            }
          ],
          "internalType": "struct Dao.VotedStruct[]",
          "name": "",
          "type": "tuple[]"
        }
      ],
      "stateMutability": "view",
      "type": "function"
    },
    {
      "inputs": [
        {
          "internalType": "bytes32",
          "name": "role",
          "type": "bytes32"
        },
        {
          "internalType": "address",
          "name": "account",
          "type": "address"
        }
      ],
      "name": "grantRole",
      "outputs": [],
      "stateMutability": "nonpayable",
      "type": "function"
    },
    {
      "inputs": [
        {
          "internalType": "bytes32",
          "name": "role",
          "type": "bytes32"
        },
        {
          "internalType": "address",
          "name": "account",
          "type": "address"
        }
      ],
      "name": "hasRole",
      "outputs": [
        {
          "internalType": "bool",
          "name": "",
          "type": "bool"
        }
      ],
      "stateMutability": "view",
      "type": "function"
    },
    {
      "inputs": [
        {
          "internalType": "uint256",
          "name": "proposalId",
          "type": "uint256"
        }
      ],
      "name": "payBeneficiary",
      "outputs": [
        {
          "internalType": "uint256",
          "name": "",
          "type": "uint256"
        }
      ],
      "stateMutability": "nonpayable",
      "type": "function"
    },
    {
      "inputs": [
        {
          "internalType": "bytes32",
          "name": "role",
          "type": "bytes32"
        },
        {
          "internalType": "address",
          "name": "account",
          "type": "address"
        }
      ],
      "name": "renounceRole",
      "outputs": [],
      "stateMutability": "nonpayable",
      "type": "function"
    },
    {
      "inputs": [
        {
          "internalType": "bytes32",
          "name": "role",
          "type": "bytes32"
        },
        {
          "internalType": "address",
          "name": "account",
          "type": "address"
        }
      ],
      "name": "revokeRole",
      "outputs": [],
      "stateMutability": "nonpayable",
      "type": "function"
    },
    {
      "inputs": [
        {
          "internalType": "bytes4",
          "name": "interfaceId",
          "type": "bytes4"
        }
      ],
      "name": "supportsInterface",
      "outputs": [
        {
          "internalType": "bool",
          "name": "",
          "type": "bool"
        }
      ],
      "stateMutability": "view",
      "type": "function"
    },
    {
      "inputs": [
        {
          "internalType": "uint256",
          "name": "propsalId",
          "type": "uint256"
        },
        {
          "internalType": "bool",
          "name": "choosen",
          "type": "bool"
        }
      ],
      "name": "vote",
      "outputs": [
        {
          "components": [
            {
              "internalType": "address",
              "name": "voter",
              "type": "address"
            },
            {
              "internalType": "uint256",
              "name": "timestamp",
              "type": "uint256"
            },
            {
              "internalType": "bool",
              "name": "choosen",
              "type": "bool"
            }
          ],
          "internalType": "struct Dao.VotedStruct",
          "name": "",
          "type": "tuple"
        }
      ],
      "stateMutability": "nonpayable",
      "type": "function"
    }
  ],
  "bytecode": "0x60c06040527fa0bb1af1c90aa52ed052b92714ff0087008cc720049bf1af77cca2600b31e80c6080908152507ff4bb84e1768dd286358a736d195a0b228621173f655a73b89bf8b191ed0ba07d60a090815250670de0b6b3a764000060025560b460035534801561006f57600080fd5b50600160008190555060805160a051613c3d6100e3600039600081816104ea0152818161077b01528181610d2c01528181610df801528181610fe4015281816110d2015281816114d30152818161175c0152818161183c01526119060152600081816119870152611ac90152613c3d6000f3fe6080604052600436106100fe5760003560e01c80637cdc2eb711610095578063bd97281611610064578063bd9728161461035b578063c7f758a814610386578063c9d27afe146103c3578063d547741f14610400578063d7bb99ba14610429576100fe565b80637cdc2eb71461029f57806391d14854146102c8578063a217fddf14610305578063a22f1db714610330576100fe565b806336568abe116100d157806336568abe146101e357806362564c481461020c57806369a136dc146102375780636a80d84d14610274576100fe565b806301ffc9a714610103578063119c37c814610140578063248a9ca31461017d5780632f2ff15d146101ba575b600080fd5b34801561010f57600080fd5b5061012a60048036038101906101259190612428565b610433565b6040516101379190612470565b60405180910390f35b34801561014c57600080fd5b50610167600480360381019061016291906124c1565b6104ad565b60405161017491906124fd565b60405180910390f35b34801561018957600080fd5b506101a4600480360381019061019f919061254e565b6107c9565b6040516101b1919061258a565b60405180910390f35b3480156101c657600080fd5b506101e160048036038101906101dc9190612603565b6107e9565b005b3480156101ef57600080fd5b5061020a60048036038101906102059190612603565b61080a565b005b34801561021857600080fd5b5061022161088d565b60405161022e91906128ee565b60405180910390f35b34801561024357600080fd5b5061025e600480360381019061025991906124c1565b610c02565b60405161026b9190612a01565b60405180910390f35b34801561028057600080fd5b50610289610cef565b60405161029691906124fd565b60405180910390f35b3480156102ab57600080fd5b506102c660048036038101906102c19190612b58565b610dda565b005b3480156102d457600080fd5b506102ef60048036038101906102ea9190612603565b611023565b6040516102fc9190612470565b60405180910390f35b34801561031157600080fd5b5061031a61108e565b604051610327919061258a565b60405180910390f35b34801561033c57600080fd5b50610345611095565b6040516103529190612ca6565b60405180910390f35b34801561036757600080fd5b506103706111ce565b60405161037d91906124fd565b60405180910390f35b34801561039257600080fd5b506103ad60048036038101906103a891906124c1565b6111d4565b6040516103ba9190612dd3565b60405180910390f35b3480156103cf57600080fd5b506103ea60048036038101906103e59190612e21565b611490565b6040516103f79190612ea3565b60405180910390f35b34801561040c57600080fd5b5061042760048036038101906104229190612603565b6117d3565b005b6104316117f4565b005b60007f7965db0b000000000000000000000000000000000000000000000000000000007bffffffffffffffffffffffffffffffffffffffffffffffffffffffff1916827bffffffffffffffffffffffffffffffffffffffffffffffffffffffff191614806104a657506104a582611b01565b5b9050919050565b60006040518060400160405280601d81526020017f556e617574686f72697a6564207374616b65686f6c646572206f6e6c7900000081525061050f7f000000000000000000000000000000000000000000000000000000000000000033611023565b8190610551576040517f08c379a00000000000000000000000000000000000000000000000000000000081526004016105489190612f08565b60405180910390fd5b5061055a611b6b565b6000600660008581526020019081526020016000209050806001015460055410156105ba576040517f08c379a00000000000000000000000000000000000000000000000000000000081526004016105b190612f76565b60405180910390fd5b8060070160019054906101000a900460ff161561060c576040517f08c379a000000000000000000000000000000000000000000000000000000000815260040161060390612fe2565b60405180910390fd5b8060040154816003015411610656576040517f08c379a000000000000000000000000000000000000000000000000000000000815260040161064d9061304e565b60405180910390fd5b60018160070160016101000a81548160ff021916908315150217905550338160090160006101000a81548173ffffffffffffffffffffffffffffffffffffffff021916908373ffffffffffffffffffffffffffffffffffffffff1602179055508060010154600560008282546106cc919061309d565b925050819055506107058160070160029054906101000a900473ffffffffffffffffffffffffffffffffffffffff168260010154611bba565b508060070160029054906101000a900473ffffffffffffffffffffffffffffffffffffffff1673ffffffffffffffffffffffffffffffffffffffff163373ffffffffffffffffffffffffffffffffffffffff167fa596782d699d74613fcbf59d33e720baabd313d6be9c95e2268f305430305eb77f000000000000000000000000000000000000000000000000000000000000000084600101546040516107ad92919061311d565b60405180910390a36005549250506107c3611c72565b50919050565b600060016000838152602001908152602001600020600101549050919050565b6107f2826107c9565b6107fb81611c7c565b6108058383611c90565b505050565b610812611d70565b73ffffffffffffffffffffffffffffffffffffffff168173ffffffffffffffffffffffffffffffffffffffff161461087f576040517f08c379a0000000000000000000000000000000000000000000000000000000008152600401610876906131cb565b60405180910390fd5b6108898282611d78565b5050565b6060600460009054906101000a900463ffffffff1663ffffffff1667ffffffffffffffff8111156108c1576108c0612a2d565b5b6040519080825280602002602001820160405280156108fa57816020015b6108e76122dc565b8152602001906001900390816108df5790505b50905060005b600460009054906101000a900463ffffffff1663ffffffff16811015610bfe57600660008281526020019081526020016000206040518061018001604052908160008201548152602001600182015481526020016002820154815260200160038201548152602001600482015481526020016005820180546109819061321a565b80601f01602080910402602001604051908101604052809291908181526020018280546109ad9061321a565b80156109fa5780601f106109cf576101008083540402835291602001916109fa565b820191906000526020600020905b8154815290600101906020018083116109dd57829003601f168201915b50505050508152602001600682018054610a139061321a565b80601f0160208091040260200160405190810160405280929190818152602001828054610a3f9061321a565b8015610a8c5780601f10610a6157610100808354040283529160200191610a8c565b820191906000526020600020905b815481529060010190602001808311610a6f57829003601f168201915b505050505081526020016007820160009054906101000a900460ff161515151581526020016007820160019054906101000a900460ff161515151581526020016007820160029054906101000a900473ffffffffffffffffffffffffffffffffffffffff1673ffffffffffffffffffffffffffffffffffffffff1673ffffffffffffffffffffffffffffffffffffffff1681526020016008820160009054906101000a900473ffffffffffffffffffffffffffffffffffffffff1673ffffffffffffffffffffffffffffffffffffffff1673ffffffffffffffffffffffffffffffffffffffff1681526020016009820160009054906101000a900473ffffffffffffffffffffffffffffffffffffffff1673ffffffffffffffffffffffffffffffffffffffff1673ffffffffffffffffffffffffffffffffffffffff1681525050828281518110610be057610bdf61324b565b5b60200260200101819052508080610bf69061327a565b915050610900565b5090565b606060086000838152602001908152602001600020805480602002602001604051908101604052809291908181526020016000905b82821015610ce457838290600052602060002090600302016040518060600160405290816000820160009054906101000a900473ffffffffffffffffffffffffffffffffffffffff1673ffffffffffffffffffffffffffffffffffffffff1673ffffffffffffffffffffffffffffffffffffffff168152602001600182015481526020016002820160009054906101000a900460ff16151515158152505081526020019060010190610c37565b505050509050919050565b60006040518060400160405280601e81526020017f556e617574686f72697a6564206e6f742061207374616b65686f6c6465720000815250610d517f000000000000000000000000000000000000000000000000000000000000000033611023565b8190610d93576040517f08c379a0000000000000000000000000000000000000000000000000000000008152600401610d8a9190612f08565b60405180910390fd5b50600a60003373ffffffffffffffffffffffffffffffffffffffff1673ffffffffffffffffffffffffffffffffffffffff1681526020019081526020016000205491505090565b6040518060600160405280602c8152602001613bdc602c9139610e1d7f000000000000000000000000000000000000000000000000000000000000000033611023565b8190610e5f576040517f08c379a0000000000000000000000000000000000000000000000000000000008152600401610e569190612f08565b60405180910390fd5b5060006004600081819054906101000a900463ffffffff1680929190610e84906132d2565b91906101000a81548163ffffffff021916908363ffffffff16021790555063ffffffff1690506000600660008381526020019081526020016000209050818160000181905550338160080160006101000a81548173ffffffffffffffffffffffffffffffffffffffff021916908373ffffffffffffffffffffffffffffffffffffffff16021790555085816006019081610f1e91906134aa565b5086816005019081610f3091906134aa565b50848160070160026101000a81548173ffffffffffffffffffffffffffffffffffffffff021916908373ffffffffffffffffffffffffffffffffffffffff16021790555083816001018190555060035442610f8b919061357c565b81600201819055508473ffffffffffffffffffffffffffffffffffffffff163373ffffffffffffffffffffffffffffffffffffffff167fa596782d699d74613fcbf59d33e720baabd313d6be9c95e2268f305430305eb77f0000000000000000000000000000000000000000000000000000000000000000876040516110129291906135fc565b60405180910390a350505050505050565b60006001600084815260200190815260200160002060000160008373ffffffffffffffffffffffffffffffffffffffff1673ffffffffffffffffffffffffffffffffffffffff16815260200190815260200160002060009054906101000a900460ff16905092915050565b6000801b81565b60606040518060400160405280601e81526020017f556e617574686f72697a6564206e6f742061207374616b65686f6c64657200008152506110f77f000000000000000000000000000000000000000000000000000000000000000033611023565b8190611139576040517f08c379a00000000000000000000000000000000000000000000000000000000081526004016111309190612f08565b60405180910390fd5b50600760003373ffffffffffffffffffffffffffffffffffffffff1673ffffffffffffffffffffffffffffffffffffffff1681526020019081526020016000208054806020026020016040519081016040528092919081815260200182805480156111c357602002820191906000526020600020905b8154815260200190600101908083116111af575b505050505091505090565b60055481565b6111dc6122dc565b6006600083815260200190815260200160002060405180610180016040529081600082015481526020016001820154815260200160028201548152602001600382015481526020016004820154815260200160058201805461123d9061321a565b80601f01602080910402602001604051908101604052809291908181526020018280546112699061321a565b80156112b65780601f1061128b576101008083540402835291602001916112b6565b820191906000526020600020905b81548152906001019060200180831161129957829003601f168201915b505050505081526020016006820180546112cf9061321a565b80601f01602080910402602001604051908101604052809291908181526020018280546112fb9061321a565b80156113485780601f1061131d57610100808354040283529160200191611348565b820191906000526020600020905b81548152906001019060200180831161132b57829003601f168201915b505050505081526020016007820160009054906101000a900460ff161515151581526020016007820160019054906101000a900460ff161515151581526020016007820160029054906101000a900473ffffffffffffffffffffffffffffffffffffffff1673ffffffffffffffffffffffffffffffffffffffff1673ffffffffffffffffffffffffffffffffffffffff1681526020016008820160009054906101000a900473ffffffffffffffffffffffffffffffffffffffff1673ffffffffffffffffffffffffffffffffffffffff1673ffffffffffffffffffffffffffffffffffffffff1681526020016009820160009054906101000a900473ffffffffffffffffffffffffffffffffffffffff1673ffffffffffffffffffffffffffffffffffffffff1673ffffffffffffffffffffffffffffffffffffffff16815250509050919050565b611498612383565b6040518060400160405280601b81526020017f5374616b6520686f6c646572206f6e6c79207065726d697474656400000000008152506114f87f000000000000000000000000000000000000000000000000000000000000000033611023565b819061153a576040517f08c379a00000000000000000000000000000000000000000000000000000000081526004016115319190612f08565b60405180910390fd5b50600060066000868152602001908152602001600020905061155b81611e5a565b8315611580578060030160008154809291906115769061327a565b919050555061159b565b8060040160008154809291906115959061327a565b91905055505b600760003373ffffffffffffffffffffffffffffffffffffffff1673ffffffffffffffffffffffffffffffffffffffff168152602001908152602001600020816000015490806001815401808255809150506001900390600052602060002001600090919091909150556008600086815260200190815260200160002060405180606001604052803373ffffffffffffffffffffffffffffffffffffffff168152602001428152602001861515815250908060018154018082558091505060019003906000526020600020906003020160009091909190915060008201518160000160006101000a81548173ffffffffffffffffffffffffffffffffffffffff021916908373ffffffffffffffffffffffffffffffffffffffff1602179055506020820151816001015560408201518160020160006101000a81548160ff02191690831515021790555050508060070160029054906101000a900473ffffffffffffffffffffffffffffffffffffffff1673ffffffffffffffffffffffffffffffffffffffff163373ffffffffffffffffffffffffffffffffffffffff167fa596782d699d74613fcbf59d33e720baabd313d6be9c95e2268f305430305eb77f0000000000000000000000000000000000000000000000000000000000000000846001015460405161178e929190613684565b60405180910390a360405180606001604052803373ffffffffffffffffffffffffffffffffffffffff1681526020014281526020018515158152509250505092915050565b6117dc826107c9565b6117e581611c7c565b6117ef8383611d78565b505050565b60003411611837576040517f08c379a000000000000000000000000000000000000000000000000000000000815260040161182e90613732565b60405180910390fd5b6118617f000000000000000000000000000000000000000000000000000000000000000033611023565b6119b257600034600960003373ffffffffffffffffffffffffffffffffffffffff1673ffffffffffffffffffffffffffffffffffffffff168152602001908152602001600020546118b2919061357c565b9050600254811061192c5780600a60003373ffffffffffffffffffffffffffffffffffffffff1673ffffffffffffffffffffffffffffffffffffffff1681526020019081526020016000208190555061192b7f000000000000000000000000000000000000000000000000000000000000000033611c90565b5b34600960003373ffffffffffffffffffffffffffffffffffffffff1673ffffffffffffffffffffffffffffffffffffffff168152602001908152602001600020600082825461197b919061357c565b925050819055506119ac7f000000000000000000000000000000000000000000000000000000000000000033611c90565b50611a5f565b34600960003373ffffffffffffffffffffffffffffffffffffffff1673ffffffffffffffffffffffffffffffffffffffff1681526020019081526020016000206000828254611a01919061357c565b9250508190555034600a60003373ffffffffffffffffffffffffffffffffffffffff1673ffffffffffffffffffffffffffffffffffffffff1681526020019081526020016000206000828254611a57919061357c565b925050819055505b3460056000828254611a71919061357c565b925050819055503073ffffffffffffffffffffffffffffffffffffffff163373ffffffffffffffffffffffffffffffffffffffff167fa596782d699d74613fcbf59d33e720baabd313d6be9c95e2268f305430305eb77f000000000000000000000000000000000000000000000000000000000000000034604051611af792919061379e565b60405180910390a3565b60007f01ffc9a7000000000000000000000000000000000000000000000000000000007bffffffffffffffffffffffffffffffffffffffffffffffffffffffff1916827bffffffffffffffffffffffffffffffffffffffffffffffffffffffff1916149050919050565b600260005403611bb0576040517f08c379a0000000000000000000000000000000000000000000000000000000008152600401611ba790613826565b60405180910390fd5b6002600081905550565b6000808373ffffffffffffffffffffffffffffffffffffffff1683604051611be190613877565b60006040518083038185875af1925050503d8060008114611c1e576040519150601f19603f3d011682016040523d82523d6000602084013e611c23565b606091505b5050905080611c67576040517f08c379a0000000000000000000000000000000000000000000000000000000008152600401611c5e906138fe565b60405180910390fd5b600191505092915050565b6001600081905550565b611c8d81611c88611d70565b611fee565b50565b611c9a8282611023565b611d6c57600180600084815260200190815260200160002060000160008373ffffffffffffffffffffffffffffffffffffffff1673ffffffffffffffffffffffffffffffffffffffff16815260200190815260200160002060006101000a81548160ff021916908315150217905550611d11611d70565b73ffffffffffffffffffffffffffffffffffffffff168173ffffffffffffffffffffffffffffffffffffffff16837f2f8788117e7eff1d82e926ec794901d17c78024a50270940304540a733656f0d60405160405180910390a45b5050565b600033905090565b611d828282611023565b15611e565760006001600084815260200190815260200160002060000160008373ffffffffffffffffffffffffffffffffffffffff1673ffffffffffffffffffffffffffffffffffffffff16815260200190815260200160002060006101000a81548160ff021916908315150217905550611dfb611d70565b73ffffffffffffffffffffffffffffffffffffffff168173ffffffffffffffffffffffffffffffffffffffff16837ff6391f5c32d9c69d2a47ea670b442974b53935d1edc7fd64eb21e047a839171b60405160405180910390a45b5050565b8060070160009054906101000a900460ff1680611e7b575042816002015411155b15611ed85760018160070160006101000a81548160ff0219169083151502179055506040517f08c379a0000000000000000000000000000000000000000000000000000000008152600401611ecf9061396a565b60405180910390fd5b6000600760003373ffffffffffffffffffffffffffffffffffffffff1673ffffffffffffffffffffffffffffffffffffffff168152602001908152602001600020805480602002602001604051908101604052809291908181526020018280548015611f6357602002820191906000526020600020905b815481526020019060010190808311611f4f575b5050505050905060005b8151811015611fe957818181518110611f8957611f8861324b565b5b6020026020010151836000015403611fd6576040517f08c379a0000000000000000000000000000000000000000000000000000000008152600401611fcd906139d6565b60405180910390fd5b8080611fe19061327a565b915050611f6d565b505050565b611ff88282611023565b61206f5761200581612073565b6120138360001c60206120a0565b604051602001612024929190613aca565b6040516020818303038152906040526040517f08c379a00000000000000000000000000000000000000000000000000000000081526004016120669190612f08565b60405180910390fd5b5050565b60606120998273ffffffffffffffffffffffffffffffffffffffff16601460ff166120a0565b9050919050565b6060600060028360026120b39190613b04565b6120bd919061357c565b67ffffffffffffffff8111156120d6576120d5612a2d565b5b6040519080825280601f01601f1916602001820160405280156121085781602001600182028036833780820191505090505b5090507f3000000000000000000000000000000000000000000000000000000000000000816000815181106121405761213f61324b565b5b60200101907effffffffffffffffffffffffffffffffffffffffffffffffffffffffffffff1916908160001a9053507f7800000000000000000000000000000000000000000000000000000000000000816001815181106121a4576121a361324b565b5b60200101907effffffffffffffffffffffffffffffffffffffffffffffffffffffffffffff1916908160001a905350600060018460026121e49190613b04565b6121ee919061357c565b90505b600181111561228e577f3031323334353637383961626364656600000000000000000000000000000000600f8616601081106122305761222f61324b565b5b1a60f81b8282815181106122475761224661324b565b5b60200101907effffffffffffffffffffffffffffffffffffffffffffffffffffffffffffff1916908160001a905350600485901c94508061228790613b46565b90506121f1565b50600084146122d2576040517f08c379a00000000000000000000000000000000000000000000000000000000081526004016122c990613bbb565b60405180910390fd5b8091505092915050565b60405180610180016040528060008152602001600081526020016000815260200160008152602001600081526020016060815260200160608152602001600015158152602001600015158152602001600073ffffffffffffffffffffffffffffffffffffffff168152602001600073ffffffffffffffffffffffffffffffffffffffff168152602001600073ffffffffffffffffffffffffffffffffffffffff1681525090565b6040518060600160405280600073ffffffffffffffffffffffffffffffffffffffff168152602001600081526020016000151581525090565b6000604051905090565b600080fd5b600080fd5b60007fffffffff0000000000000000000000000000000000000000000000000000000082169050919050565b612405816123d0565b811461241057600080fd5b50565b600081359050612422816123fc565b92915050565b60006020828403121561243e5761243d6123c6565b5b600061244c84828501612413565b91505092915050565b60008115159050919050565b61246a81612455565b82525050565b60006020820190506124856000830184612461565b92915050565b6000819050919050565b61249e8161248b565b81146124a957600080fd5b50565b6000813590506124bb81612495565b92915050565b6000602082840312156124d7576124d66123c6565b5b60006124e5848285016124ac565b91505092915050565b6124f78161248b565b82525050565b600060208201905061251260008301846124ee565b92915050565b6000819050919050565b61252b81612518565b811461253657600080fd5b50565b60008135905061254881612522565b92915050565b600060208284031215612564576125636123c6565b5b600061257284828501612539565b91505092915050565b61258481612518565b82525050565b600060208201905061259f600083018461257b565b92915050565b600073ffffffffffffffffffffffffffffffffffffffff82169050919050565b60006125d0826125a5565b9050919050565b6125e0816125c5565b81146125eb57600080fd5b50565b6000813590506125fd816125d7565b92915050565b6000806040838503121561261a576126196123c6565b5b600061262885828601612539565b9250506020612639858286016125ee565b9150509250929050565b600081519050919050565b600082825260208201905092915050565b6000819050602082019050919050565b6126788161248b565b82525050565b600081519050919050565b600082825260208201905092915050565b60005b838110156126b857808201518184015260208101905061269d565b60008484015250505050565b6000601f19601f8301169050919050565b60006126e08261267e565b6126ea8185612689565b93506126fa81856020860161269a565b612703816126c4565b840191505092915050565b61271781612455565b82525050565b6000612728826125a5565b9050919050565b6127388161271d565b82525050565b612747816125c5565b82525050565b600061018083016000830151612766600086018261266f565b506020830151612779602086018261266f565b50604083015161278c604086018261266f565b50606083015161279f606086018261266f565b5060808301516127b2608086018261266f565b5060a083015184820360a08601526127ca82826126d5565b91505060c083015184820360c08601526127e482826126d5565b91505060e08301516127f960e086018261270e565b5061010083015161280e61010086018261270e565b5061012083015161282361012086018261272f565b5061014083015161283861014086018261273e565b5061016083015161284d61016086018261273e565b508091505092915050565b6000612864838361274d565b905092915050565b6000602082019050919050565b600061288482612643565b61288e818561264e565b9350836020820285016128a08561265f565b8060005b858110156128dc57848403895281516128bd8582612858565b94506128c88361286c565b925060208a019950506001810190506128a4565b50829750879550505050505092915050565b600060208201905081810360008301526129088184612879565b905092915050565b600081519050919050565b600082825260208201905092915050565b6000819050602082019050919050565b606082016000820151612952600085018261273e565b506020820151612965602085018261266f565b506040820151612978604085018261270e565b50505050565b600061298a838361293c565b60608301905092915050565b6000602082019050919050565b60006129ae82612910565b6129b8818561291b565b93506129c38361292c565b8060005b838110156129f45781516129db888261297e565b97506129e683612996565b9250506001810190506129c7565b5085935050505092915050565b60006020820190508181036000830152612a1b81846129a3565b905092915050565b600080fd5b600080fd5b7f4e487b7100000000000000000000000000000000000000000000000000000000600052604160045260246000fd5b612a65826126c4565b810181811067ffffffffffffffff82111715612a8457612a83612a2d565b5b80604052505050565b6000612a976123bc565b9050612aa38282612a5c565b919050565b600067ffffffffffffffff821115612ac357612ac2612a2d565b5b612acc826126c4565b9050602081019050919050565b82818337600083830152505050565b6000612afb612af684612aa8565b612a8d565b905082815260208101848484011115612b1757612b16612a28565b5b612b22848285612ad9565b509392505050565b600082601f830112612b3f57612b3e612a23565b5b8135612b4f848260208601612ae8565b91505092915050565b60008060008060808587031215612b7257612b716123c6565b5b600085013567ffffffffffffffff811115612b9057612b8f6123cb565b5b612b9c87828801612b2a565b945050602085013567ffffffffffffffff811115612bbd57612bbc6123cb565b5b612bc987828801612b2a565b9350506040612bda878288016125ee565b9250506060612beb878288016124ac565b91505092959194509250565b600081519050919050565b600082825260208201905092915050565b6000819050602082019050919050565b6000612c2f838361266f565b60208301905092915050565b6000602082019050919050565b6000612c5382612bf7565b612c5d8185612c02565b9350612c6883612c13565b8060005b83811015612c99578151612c808882612c23565b9750612c8b83612c3b565b925050600181019050612c6c565b5085935050505092915050565b60006020820190508181036000830152612cc08184612c48565b905092915050565b600061018083016000830151612ce1600086018261266f565b506020830151612cf4602086018261266f565b506040830151612d07604086018261266f565b506060830151612d1a606086018261266f565b506080830151612d2d608086018261266f565b5060a083015184820360a0860152612d4582826126d5565b91505060c083015184820360c0860152612d5f82826126d5565b91505060e0830151612d7460e086018261270e565b50610100830151612d8961010086018261270e565b50610120830151612d9e61012086018261272f565b50610140830151612db361014086018261273e565b50610160830151612dc861016086018261273e565b508091505092915050565b60006020820190508181036000830152612ded8184612cc8565b905092915050565b612dfe81612455565b8114612e0957600080fd5b50565b600081359050612e1b81612df5565b92915050565b60008060408385031215612e3857612e376123c6565b5b6000612e46858286016124ac565b9250506020612e5785828601612e0c565b9150509250929050565b606082016000820151612e77600085018261273e565b506020820151612e8a602085018261266f565b506040820151612e9d604085018261270e565b50505050565b6000606082019050612eb86000830184612e61565b92915050565b600082825260208201905092915050565b6000612eda8261267e565b612ee48185612ebe565b9350612ef481856020860161269a565b612efd816126c4565b840191505092915050565b60006020820190508181036000830152612f228184612ecf565b905092915050565b7f496e73756666696369656e742066756e64730000000000000000000000000000600082015250565b6000612f60601283612ebe565b9150612f6b82612f2a565b602082019050919050565b60006020820190508181036000830152612f8f81612f53565b9050919050565b7f5061796d656e7420697320616c72656164792073656e74000000000000000000600082015250565b6000612fcc601783612ebe565b9150612fd782612f96565b602082019050919050565b60006020820190508181036000830152612ffb81612fbf565b9050919050565b7f496e737566666963656e7420766f746573000000000000000000000000000000600082015250565b6000613038601183612ebe565b915061304382613002565b602082019050919050565b600060208201905081810360008301526130678161302b565b9050919050565b7f4e487b7100000000000000000000000000000000000000000000000000000000600052601160045260246000fd5b60006130a88261248b565b91506130b38361248b565b92508282039050818111156130cb576130ca61306e565b5b92915050565b7f7061796d656e74207472616e7366657272656400000000000000000000000000600082015250565b6000613107601383612ebe565b9150613112826130d1565b602082019050919050565b6000606082019050613132600083018561257b565b8181036020830152613143816130fa565b905061315260408301846124ee565b9392505050565b7f416363657373436f6e74726f6c3a2063616e206f6e6c792072656e6f756e636560008201527f20726f6c657320666f722073656c660000000000000000000000000000000000602082015250565b60006131b5602f83612ebe565b91506131c082613159565b604082019050919050565b600060208201905081810360008301526131e4816131a8565b9050919050565b7f4e487b7100000000000000000000000000000000000000000000000000000000600052602260045260246000fd5b6000600282049050600182168061323257607f821691505b602082108103613245576132446131eb565b5b50919050565b7f4e487b7100000000000000000000000000000000000000000000000000000000600052603260045260246000fd5b60006132858261248b565b91507fffffffffffffffffffffffffffffffffffffffffffffffffffffffffffffffff82036132b7576132b661306e565b5b600182019050919050565b600063ffffffff82169050919050565b60006132dd826132c2565b915063ffffffff82036132f3576132f261306e565b5b600182019050919050565b60008190508160005260206000209050919050565b60006020601f8301049050919050565b600082821b905092915050565b6000600883026133607fffffffffffffffffffffffffffffffffffffffffffffffffffffffffffffffff82613323565b61336a8683613323565b95508019841693508086168417925050509392505050565b6000819050919050565b60006133a76133a261339d8461248b565b613382565b61248b565b9050919050565b6000819050919050565b6133c18361338c565b6133d56133cd826133ae565b848454613330565b825550505050565b600090565b6133ea6133dd565b6133f58184846133b8565b505050565b5b818110156134195761340e6000826133e2565b6001810190506133fb565b5050565b601f82111561345e5761342f816132fe565b61343884613313565b81016020851015613447578190505b61345b61345385613313565b8301826133fa565b50505b505050565b600082821c905092915050565b600061348160001984600802613463565b1980831691505092915050565b600061349a8383613470565b9150826002028217905092915050565b6134b38261267e565b67ffffffffffffffff8111156134cc576134cb612a2d565b5b6134d6825461321a565b6134e182828561341d565b600060209050601f8311600181146135145760008415613502578287015190505b61350c858261348e565b865550613574565b601f198416613522866132fe565b60005b8281101561354a57848901518255600182019150602085019450602081019050613525565b868310156135675784890151613563601f891682613470565b8355505b6001600288020188555050505b505050505050565b60006135878261248b565b91506135928361248b565b92508282019050808211156135aa576135a961306e565b5b92915050565b7f50524f504f53414c205241495345440000000000000000000000000000000000600082015250565b60006135e6600f83612ebe565b91506135f1826135b0565b602082019050919050565b6000606082019050613611600083018561257b565b8181036020830152613622816135d9565b905061363160408301846124ee565b9392505050565b7f70726f706f73616c20766f746500000000000000000000000000000000000000600082015250565b600061366e600d83612ebe565b915061367982613638565b602082019050919050565b6000606082019050613699600083018561257b565b81810360208301526136aa81613661565b90506136b960408301846124ee565b9392505050565b7f436f6e747269627574696f6e2073686f756c64206265206d6f7265207468617460008201527f207a65726f000000000000000000000000000000000000000000000000000000602082015250565b600061371c602583612ebe565b9150613727826136c0565b604082019050919050565b6000602082019050818103600083015261374b8161370f565b9050919050565b7f436f6e747269627574696f6e2072656365697665640000000000000000000000600082015250565b6000613788601583612ebe565b915061379382613752565b602082019050919050565b60006060820190506137b3600083018561257b565b81810360208301526137c48161377b565b90506137d360408301846124ee565b9392505050565b7f5265656e7472616e637947756172643a207265656e7472616e742063616c6c00600082015250565b6000613810601f83612ebe565b915061381b826137da565b602082019050919050565b6000602082019050818103600083015261383f81613803565b9050919050565b600081905092915050565b50565b6000613861600083613846565b915061386c82613851565b600082019050919050565b600061388282613854565b9150819050919050565b7f5061796d656e74206661696c656420736f6d657468696e672077656e7420777260008201527f6f6e670000000000000000000000000000000000000000000000000000000000602082015250565b60006138e8602383612ebe565b91506138f38261388c565b604082019050919050565b60006020820190508181036000830152613917816138db565b9050919050565b7f70726f706f73616c206475726174696f6e206578706972656400000000000000600082015250565b6000613954601983612ebe565b915061395f8261391e565b602082019050919050565b6000602082019050818103600083015261398381613947565b9050919050565b7f646f75626c6520766f74696e67206e6f7420616c6c6f77656400000000000000600082015250565b60006139c0601983612ebe565b91506139cb8261398a565b602082019050919050565b600060208201905081810360008301526139ef816139b3565b9050919050565b600081905092915050565b7f416363657373436f6e74726f6c3a206163636f756e7420000000000000000000600082015250565b6000613a376017836139f6565b9150613a4282613a01565b601782019050919050565b6000613a588261267e565b613a6281856139f6565b9350613a7281856020860161269a565b80840191505092915050565b7f206973206d697373696e6720726f6c6520000000000000000000000000000000600082015250565b6000613ab46011836139f6565b9150613abf82613a7e565b601182019050919050565b6000613ad582613a2a565b9150613ae18285613a4d565b9150613aec82613aa7565b9150613af88284613a4d565b91508190509392505050565b6000613b0f8261248b565b9150613b1a8361248b565b9250828202613b288161248b565b91508282048414831517613b3f57613b3e61306e565b5b5092915050565b6000613b518261248b565b915060008203613b6457613b6361306e565b5b600182039050919050565b7f537472696e67733a20686578206c656e67746820696e73756666696369656e74600082015250565b6000613ba5602083612ebe565b9150613bb082613b6f565b602082019050919050565b60006020820190508181036000830152613bd481613b98565b905091905056fe70726f70616c206372656174696f6e20616c6c6f77656420666f72207374616b686f6c64657273206f6e6c79a26469706673582212204476a2ca2a606eb689a4e94b4bae2d4b727e2302608b48d571c09d03a003517d64736f6c63430008120033",
  "linkReferences": {},
  "deployedLinkReferences": {}
}